:100000000C942E000C94610C0C94610C0C94610CFB
:100010000C94610C0C94610C0C94610C0C94610CAC
:100020000C94610C0C94610C0C94610C0C94610C9C
:100030000C94610C0C94610C0C94610C0C94610C8C
:100040000C94610C0C94610C0C94610C0C94610C7C
:100050000C94610C006000D30018D00011241FBE66
:10006000CFE5D8E0DEBFCDBFE4E5F0E040E017C06B
:10007000B591A59135912591059107FD0CC09591FC
:100080008591EF01F92FE82F05900D92A217B30784
:10009000D9F7FE0104C01D92A217B307E1F7EB35B3
:1000A000F40731F70E94710A0C941F0CF894FFCFEB
:1000B0000F931F93CF93DF93CDB7DEB7CA54D10907
:1000C0000FB6F894DEBF0FBECDBF84E390E024E30B
:1000D00030E0F90120812D67FC01208380E090E071
:1000E000A0EAB1E489839A83AB83BC838E010F5B62
:1000F0001F4F20E030E04AEF54E469817A818B8120
:100100009C810E945A0CDC01CB01F8018083918311
:10011000A283B383CE018F5B9F4F20E030E040E8A5
:100120005FE3FC0160817181828193810E944C0CAC
:1001300088234CF4CE018B5B9F4F21E030E0FC0123
:100140003183208369C0CE018F5B9F4F20E03FEF5A
:100150004FE757E4FC0160817181828193810E94A5
:10016000510C18160CF046C020E030E040E251E49B
:1001700069817A818B819C810E945A0CDC01CB01C0
:100180008E010B5B1F4FBC01CD010E94080BDC01EF
:10019000CB01F8019183808324C0CE01895B9F4FFE
:1001A00028EC30E0FC0131832083CE01895B9F4F36
:1001B000FC01808191810197F1F79E01295B3F4FFE
:1001C000F90191838083CE018B5B9F4F9E012B5B56
:1001D0003F4FF9012081318121503109FC013183E8
:1001E0002083CE018B5B9F4FFC0180819181892B05
:1001F000A1F62CC08E010B5B1F4FCE018F5B9F4F72
:10020000FC0160817181828193810E94080BDC0175
:10021000CB01F80191838083CE01875B9F4F9E01C4
:100220002B5B3F4FF90120813181FC013183208319
:10023000CE01875B9F4FFC01808191810197F1F78F
:100240009E01275B3F4FF9019183808383E00E94E9
:10025000280380E090E0A0EAB0E48D839E83AF8322
:10026000B88720E030E04AEF54E46D817E818F81D1
:1002700098850E945A0CDC01CB018FAB98AFA9AFD7
:10028000BAAF20E030E040E85FE36FA978AD89AD18
:100290009AAD0E944C0C88232CF481E090E09CAF36
:1002A0008BAF3FC020E03FEF4FE757E46FA978AD39
:1002B00089AD9AAD0E94510C18164CF520E030E043
:1002C00040E251E46D817E818F8198850E945A0CB5
:1002D000DC01CB01BC01CD010E94080BDC01CB018C
:1002E0009CAF8BAF0FC088EC90E09EAF8DAF8DAD13
:1002F0009EAD0197F1F79EAF8DAF8BAD9CAD019791
:100300009CAF8BAF8BAD9CAD892B69F71EC06FA9DD
:1003100078AD89AD9AAD0E94080BDC01CB019CAF92
:100320008BAF2BAD3CADCE01CF96FC01318320834A
:10033000CE01CF96FC01808191810197F1F79E015A
:10034000215C3F4FF9019183808383E00E94280361
:1003500080E090E0A6E1B3E489879A87AB87BC8709
:100360002BEA3AEA4AE250E469857A858B859C85D6
:100370000E945A0CDC01CB018B8F9C8FAD8FBE8FFE
:1003800089859A85AB85BC859C01AD01BC01CD01F9
:100390000E942B0CDC01CB018F8F98A3A9A3BAA3D9
:1003A00020E030E040E85FE36B8D7C8D8D8D9E8D8D
:1003B0000E944C0C88231CF481E08BA3B2C020E087
:1003C0003FEF4FE757E46F8D78A189A19AA10E9472
:1003D000510C18160CF07BC020E030E04AE754E4E2
:1003E00069857A858B859C850E94560CDC01CB0142
:1003F0008CA39DA3AEA3BFA320E030E04AEF54E45A
:100400006CA17DA18EA19FA10E945A0CDC01CB01A1
:1004100088A799A7AAA7BBA720E030E040E85FE340
:1004200068A579A58AA59BA50E944C0C88232CF46D
:1004300081E090E09DA78CA73FC020E03FEF4FE711
:1004400057E468A579A58AA59BA50E94510C1816AA
:100450004CF520E030E040E251E46CA17DA18EA19A
:100460009FA10E945A0CDC01CB01BC01CD010E946E
:10047000080BDC01CB019DA78CA70FC088EC90E096
:100480009FA78EA78EA59FA50197F1F79FA78EA77F
:100490008CA59DA501979DA78CA78CA59DA5892BB3
:1004A00069F73FC068A579A58AA59BA50E94080B9E
:1004B000DC01CB019DA78CA78CA59DA599AB88AB32
:1004C00088A999A90197F1F799AB88AB2AC020E0D8
:1004D00030E04FE753E46B8D7C8D8D8D9E8D0E94B7
:1004E000510C1816ACF46F8D78A189A19AA10E94C5
:1004F000080BDC01CB019BAB8AAB8AA99BA99DAB06
:100500008CAB8CA99DA90197F1F79DAB8CAB0FC06B
:100510006B8D7C8D8D8D9E8D0E94080BDC01CB0137
:100520008BA38BA18EAB8EA98A95F1F78EAB83E05E
:100530000E94280382E00E94280388E20E94760736
:100540008CE00E94760786E00E94760781E00E9498
:10055000760780E090E0A0E0B0E48D879E87AF87CB
:10056000B88B20E030E04AEF54E46D857E858F85BE
:1005700098890E945A0CDC01CB01898B9A8BAB8B3A
:10058000BC8B20E030E040E85FE369897A898B89A1
:100590009C890E944C0C88232CF481E090E09E8B77
:1005A0008D8B3FC020E03FEF4FE757E469897A89A0
:1005B0008B899C890E94510C18164CF520E030E084
:1005C00040E251E46D857E858F8598890E945A0CA2
:1005D000DC01CB01BC01CD010E94080BDC01CB0189
:1005E0009E8B8D8B0FC088EC90E0988F8F8B8F89BE
:1005F000988D0197F1F7988F8F8B8D899E89019740
:100600009E8B8D8B8D899E89892B69F714C0698992
:100610007A898B899C890E94080BDC01CB019E8B17
:100620008D8B8D899E899A8F898F898D9A8D01975F
:10063000F1F79A8F898F0000C65BDF4F0FB6F894F1
:10064000DEBF0FBECDBFDF91CF911F910F910895F7
:10065000CF93DF93CDB7DEB7C154D1090FB6F8946D
:10066000DEBF0FBECDBF9E012F5B3F4FF9018083E0
:1006700085E390E025E330E0F90120812778FC0153
:100680002083CE018F5B9F4FFC018081882F90E0FB
:1006900081709927892B49F085E390E025E330E0CC
:1006A000F90120812860FC012083CE018F5B9F4FE0
:1006B000FC018081882F90E082709927892B49F076
:1006C00085E390E025E330E0F90120812061FC0121
:1006D0002083CE018F5B9F4FFC018081882F90E0AB
:1006E00084709927892B49F085E390E025E330E079
:1006F000F90120812062FC012083CE018F5B9F4F96
:10070000FC018081882F90E088709927892B49F01F
:1007100085E390E025E330E0F90120812064FC01CD
:10072000208385E390E025E330E0F9012081246017
:10073000FC01208380E090E0A0EAB0E489839A8302
:10074000AB83BC832BEA3AEA4AE250E469817A81BE
:100750008B819C810E945A0CDC01CB018DA39EA34E
:10076000AFA3B8A789819A81AB81BC819C01AD01FF
:10077000BC01CD010E942B0CDC01CB0189A79AA7FB
:10078000ABA7BCA720E030E040E85FE36DA17EA10D
:100790008FA198A50E944C0C88231CF481E08DA7A2
:1007A000B2C020E03FEF4FE757E469A57AA58BA5DB
:1007B0009CA50E94510C18160CF07BC020E030E084
:1007C0004AE754E469817A818B819C810E94560CAE
:1007D000DC01CB018EA79FA7A8ABB9AB20E030E02E
:1007E0004AEF54E46EA57FA588A999A90E945A0CE6
:1007F000DC01CB018AAB9BABACABBDAB20E030E006
:1008000040E85FE36AA97BA98CA99DA90E944C0CD2
:1008100088232CF481E090E09FAB8EAB3FC020E0BA
:100820003FEF4FE757E46AA97BA98CA99DA90E94D5
:10083000510C18164CF520E030E040E251E46EA572
:100840007FA588A999A90E945A0CDC01CB01BC01A3
:10085000CD010E94080BDC01CB019FAB8EAB0FC01A
:1008600088EC90E099AF88AF88AD99AD0197F1F72A
:1008700099AF88AF8EA99FA901979FAB8EAB8EA928
:100880009FA9892B69F73FC06AA97BA98CA99DA95B
:100890000E94080BDC01CB019FAB8EAB8EA99FA9F8
:1008A0009BAF8AAF8AAD9BAD0197F1F79BAF8AAF43
:1008B0002AC020E030E04FE753E46DA17EA18FA174
:1008C00098A50E94510C1816ACF469A57AA58BA5C1
:1008D0009CA50E94080BDC01CB019DAF8CAF8CADB9
:1008E0009DAD9FAF8EAF8EAD9FAD0197F1F79FAFDE
:1008F0008EAF1CC06DA17EA18FA198A50E94080B90
:10090000DC01CB018DA72DA5CE01805C9F4FFC01A2
:100910002083CE01805C9F4FFC018081282F2A9587
:10092000F1F7CE01805C9F4FFC01208385E390E0CE
:1009300025E330E0F90120812B7FFC01208380E05A
:1009400090E0A8E4B3E48D839E83AF83B8872BEA5D
:100950003AEA4AE250E46D817E818F8198850E9457
:100960005A0CDC01CB0189879A87AB87BC878D81C4
:100970009E81AF81B8859C01AD01BC01CD010E9473
:100980002B0CDC01CB018D879E87AF87B88B20E0D5
:1009900030E040E85FE369857A858B859C850E941D
:1009A0004C0C88231CF481E0898BB2C020E03FEF1F
:1009B0004FE757E46D857E858F8598890E94510C9D
:1009C00018160CF07BC020E030E04AE754E46D815B
:1009D0007E818F8198850E94560CDC01CB018A8B29
:1009E0009B8BAC8BBD8B20E030E04AEF54E46A89EE
:1009F0007B898C899D890E945A0CDC01CB018E8BEE
:100A00009F8BA88FB98F20E030E040E85FE36E89CC
:100A10007F89888D998D0E944C0C88232CF481E06D
:100A200090E09B8F8A8F3FC020E03FEF4FE757E475
:100A30006E897F89888D998D0E94510C18164CF50E
:100A400020E030E040E251E46A897B898C899D890D
:100A50000E945A0CDC01CB01BC01CD010E94080BA5
:100A6000DC01CB019B8F8A8F0FC088EC90E09D8FBB
:100A70008C8F8C8D9D8D0197F1F79D8F8C8F8A8D3A
:100A80009B8D01979B8F8A8F8A8D9B8D892B69F710
:100A90003FC06E897F89888D998D0E94080BDC018B
:100AA000CB019B8F8A8F8A8D9B8D9F8F8E8F8E8D92
:100AB0009F8D0197F1F79F8F8E8F2AC020E030E045
:100AC0004FE753E469857A858B859C850E94510C9C
:100AD0001816ACF46D857E858F8598890E94080B69
:100AE000DC01CB0199A388A388A199A19BA38AA328
:100AF0008AA19BA10197F1F79BA38AA30FC06985E7
:100B00007A858B859C850E94080BDC01CB01898B43
:100B100089898CA38CA18A95F1F78CA30000CF5B07
:100B2000DF4F0FB6F894DEBF0FBECDBFDF91CF9180
:020B3000089526
:100B3200CF93DF93CDB7DEB72A970FB6F894DEBF17
:100B42000FBECDBF9A87898789859A8560E670E056
:100B52000E94110C892B09F042C086E690E00E94A7
:100B62007D0B0E94A80861E081E00E949C0B80E658
:100B720090E00E94D10661E082E00E949C0B8EE62A
:100B820090E00E94D10688E390E028E330E0F9018A
:100B920020812460FC01208319821A821B821C821C
:100BA2000BC089819A81AB81BC810196A11DB11DC7
:100BB20089839A83AB83BC8389819A81AB81BC810F
:100BC2008035934CA105B10564F388E390E028E3F6
:100BD20030E0F90120812B7FFC012083D7C0898579
:100BE2009A8566E770E00E94110C892B09F0B8C063
:100BF2008DE790E00E947D0B80E890E00E947D0BE3
:100C020089E390E0FC018081882F90E08170992730
:100C1200892B11F081E301C080E30E94D30B8DE7A1
:100C220090E00E947D0B85E890E00E947D0B89E3B5
:100C320090E0FC018081882F90E082709927892BB7
:100C420011F081E301C080E30E94D30B8DE790E0B5
:100C52000E947D0B8AE890E00E947D0B89E390E080
:100C6200FC018081882F90E084709927892B11F0F4
:100C720081E301C080E30E94D30B8DE790E00E94E4
:100C82007D0B0E94A80861E081E00E949C0B80E835
:100C920090E00E94D10689E390E0FC018081882FD8
:100CA20090E081709927892B11F081E301C080E3E4
:100CB2000E940F088FE890E00E94D10689E390E03D
:100CC200FC018081882F90E082709927892B11F096
:100CD20081E301C080E30E940F0861E082E00E948C
:100CE2009C0B8AE890E00E94D10689E390E0FC0127
:100CF2008081882F90E084709927892B11F081E3FD
:100D020001C080E30E940F0888E390E028E330E00E
:100D1200F90120812460FC0120831D821E821F8232
:100D220018860BC08D819E81AF81B8850196A11D69
:100D3200B11D8D839E83AF83B8878D819E81AF81E4
:100D4200B8858035934CA105B10564F388E390E042
:100D520028E330E0F90120812B7FFC01208316C0BB
:100D620085E990E00E947D0B0E94A80861E081E085
:100D72000E949C0B89EA90E00E94D10661E082E029
:100D82000E949C0B81EB90E00E94D10600002A9603
:100D92000FB6F894DEBF0FBECDBFDF91CF9108959D
:100DA200CF93DF93CDB7DEB760970FB6F894DEBF6F
:100DB2000FBECDBF988B8F8780E090E0A0E0B0E4BB
:100DC20089839A83AB83BC8320E030E04AEF54E40A
:100DD20069817A818B819C810E945A0CDC01CB0152
:100DE2008D839E83AF83B88720E030E040E85FE3E5
:100DF2006D817E818F8198850E944C0C88232CF412
:100E020081E090E09A8789873FC020E03FEF4FE77B
:100E120057E46D817E818F8198850E94510C18164E
:100E22004CF520E030E040E251E469817A818B8127
:100E32009C810E945A0CDC01CB01BC01CD010E94B5
:100E4200080BDC01CB019A8789870FC088EC90E000
:100E52009C878B878B859C850197F1F79C878B8775
:100E620089859A8501979A87898789859A85892BA9
:100E720069F714C06D817E818F8198850E94080B6D
:100E8200DC01CB019A87898789859A859E878D8720
:100E92008D859E850197F1F79E878D878F8598892D
:100EA200FC0180810E940F088F8598890196988B9A
:100EB2008F870BC08F859889FC0180810E940F0863
:100EC2008F8598890196988B8F878F859889FC01E9
:100ED2008081882379F7000060960FB6F894DEBF10
:0A0EE2000FBECDBFDF91CF91089540
:100EEC00CF93DF93CDB7DEB72F970FB6F894DEBF55
:100EFC000FBECDBF8F8785E390E025E330E0F9018D
:100F0C0020812E7FFC0120838F8582958F700E941B
:100F1C0028038F858F700E94280380E090E0A0E06A
:100F2C00B0E489839A83AB83BC8320E030E04AEF42
:100F3C0054E469817A818B819C810E945A0CDC017A
:100F4C00CB018D839E83AF83B88720E030E040E8EF
:100F5C005FE36D817E818F8198850E944C0C882384
:100F6C002CF481E090E09A8789873FC020E03FEF26
:100F7C004FE757E46D817E818F8198850E94510CDB
:100F8C0018164CF520E030E040E251E469817A819A
:100F9C008B819C810E945A0CDC01CB01BC01CD01E0
:100FAC000E94080BDC01CB019A8789870FC088EC63
:100FBC0090E09C878B878B859C850197F1F79C87AC
:100FCC008B8789859A8501979A87898789859A85E0
:100FDC00892B69F714C06D817E818F8198850E9461
:100FEC00080BDC01CB019A87898789859A859E87B6
:100FFC008D878D859E850197F1F79E878D870000E3
:10100C002F960FB6F894DEBF0FBECDBFDF91CF91F8
:02101C00089535
:10101E00CF93DF93CDB7DEB72F970FB6F894DEBF21
:10102E000FBECDBF8F8785E390E025E330E0F90159
:10103E0020812160FC0120838F8582958F700E9414
:10104E0028038F858F700E94280380E090E0A0E037
:10105E00B0E489839A83AB83BC8320E030E04AEF0F
:10106E0054E469817A818B819C810E945A0CDC0147
:10107E00CB018D839E83AF83B88720E030E040E8BC
:10108E005FE36D817E818F8198850E944C0C882351
:10109E002CF481E090E09A8789873FC020E03FEFF3
:1010AE004FE757E46D817E818F8198850E94510CA8
:1010BE0018164CF520E030E040E251E469817A8167
:1010CE008B819C810E945A0CDC01CB01BC01CD01AD
:1010DE000E94080BDC01CB019A8789870FC088EC30
:1010EE0090E09C878B878B859C850197F1F79C8779
:1010FE008B8789859A8501979A87898789859A85AD
:10110E00892B69F714C06D817E818F8198850E942D
:10111E00080BDC01CB019A87898789859A859E8782
:10112E008D878D859E850197F1F79E878D870000AF
:10113E002F960FB6F894DEBF0FBECDBFDF91CF91C5
:02114E00089502
:10115000CF93DF93CDB7DEB72E970FB6F894DEBFEF
:101160000FBECDBF81E00E94760780E090E0A0E056
:10117000B0E489839A83AB83BC8320E030E04AEFFC
:1011800054E469817A818B819C810E945A0CDC0134
:10119000CB018D839E83AF83B88720E030E040E8A9
:1011A0005FE36D817E818F8198850E944C0C88233E
:1011B0002CF481E090E09A8789873FC020E03FEFE0
:1011C0004FE757E46D817E818F8198850E94510C95
:1011D00018164CF520E030E040E251E469817A8154
:1011E0008B819C810E945A0CDC01CB01BC01CD019A
:1011F0000E94080BDC01CB019A8789870FC088EC1D
:1012000090E09C878B878B859C850197F1F79C8765
:101210008B8789859A8501979A87898789859A8599
:10122000892B69F714C06D817E818F8198850E941A
:10123000080BDC01CB019A87898789859A859E876F
:101240008D878D859E850197F1F79E878D8700009C
:101250002E960FB6F894DEBF0FBECDBFDF91CF91B3
:021260000895EF
:1012620010C00E94380C58F00E94310C40F029F452
:101272005F3F29F00C94460C51110C94400C0C94D5
:101282005E0C0E945B0B68F39923B1F3552391F333
:10129200951B550BBB27AA2762177307840738F0E3
:1012A2009F5F5F4F220F331F441FAA1FA9F335D040
:1012B2000E2E3AF0E0E832D091505040E695001CF4
:1012C200CAF72BD0FE2F29D0660F771F881FBB1FAE
:1012D200261737074807AB07B0E809F0BB0B802D8C
:1012E200BF01FF2793585F4F3AF09E3F510578F0B8
:1012F2000C94460C0C94400C5F3FE4F3983ED4F3FC
:10130200869577956795B795F7959F5FC9F7880F8B
:10131200911D9695879597F90895E1E0660F771FDD
:10132200881FBB1F621773078407BA0720F0621B6E
:0E133200730B840BBA0BEE1F88F7E09508953D
:101340000FC00E94310C38F00E94380C20F0952319
:1013500011F00C94460C0C945E0C11240C94400C6F
:101360000E945B0B70F3959FC1F3950F50E0551FE2
:10137000629FF001729FBB27F00DB11D639FAA27EA
:10138000F00DB11DAA1F649F6627B00DA11D661F39
:10139000829F2227B00DA11D621F739FB00DA11D5A
:1013A000621F839FA00D611D221F749F3327A00D14
:1013B000611D231F849F600D211D822F762F6A2FB0
:1013C00011249F5750409AF0F1F088234AF0EE0F15
:1013D000FF1FBB1F661F771F881F91505040A9F742
:1013E0009E3F510580F00C94460C0C94400C5F3FDE
:1013F000E4F3983ED4F3869577956795B795F7957E
:10140000E7959F5FC1F7FE2B880F911D96958795F5
:0414100097F90895AB
:1014140011C00E94310C38F00E94380C20F039F4CD
:101424009F3F19F426F40C945E0C0EF4E095E7FB50
:101434000C94460CE92F0E945B0B58F3BA17620711
:1014440073078407950720F079F4A6F50C943F0CF4
:101454000EF4E0950B2EBA2FA02D0B01B9019001CB
:101464000C01CA01A0011124FF27591B99F0593F0F
:1014740050F4503E68F11A16F040A22F232F342F57
:101484004427585FF3CF469537952795A795F040A5
:101494005395C9F77EF41F16BA0B620B730B840BBA
:1014A400BAF09150A1F0FF0FBB1F661F771F881F72
:1014B400C2F70EC0BA0F621F731F841F48F48795CA
:1014C40077956795B795F7959E3F08F0B0CF9395BC
:0E14D400880F08F09927EE0F979587950895D9
:1014E200CF93DF93CDB7DEB767970FB6F894DEBF21
:1014F2000FBECDBF1A8219820E94B80B0E94D30A76
:101502000E9458000E94A80861E081E00E949C0BA2
:1015120085E50E940F0889EB90E00E94D10661E008
:1015220082E00E949C0B8DE40E940F0885EC90E003
:101532000E94D1068BE290E0FC0180818823D4F7DF
:101542000E94EE0B8B838B818D3019F08B818A3058
:10155200A9F49E012C5F3F4F89819A81820F931FCC
:10156200FC01108289819A811816190624F4CE0191
:1015720004960E9499051A82198213C089819A8160
:101582004397C0F689819A819C012F5F3F4F3A832E
:1015920029839E012C5F3F4F820F931F2B81FC01F9
:0415A2002083C8CF0B
:1015A600CF93DF93CDB7DEB78AE390E02AE330E04E
:1015B600F9012081287FFC0120838BE390E02BE357
:1015C60030E0F90120812760FC01208387E390E069
:1015D60027E330E0F90120812660FC01208388E3BF
:1015E60090E028E330E0F90120812260FC012083AD
:1015F60088E390E028E330E0F90120812B7FFC01AD
:0A16060020830000DF91CF910895CA
:101610000E94630B88F09F5798F0B92F9927B75114
:10162000B0F0E1F0660F771F881F991F1AF0BA9586
:10163000C9F714C0B13091F00E943F0CB1E0089599
:101640000C943F0C672F782F8827B85F39F0B93F8B
:10165000CCF3869577956795B395D9F73EF4909539
:0E1660008095709561957F4F8F4F9F4F089535
:10166E00990F0008550FAA0BE0E8FEEF16161706A5
:10167E00E807F907C0F012161306E407F50798F00D
:10168E00621B730B840B950B39F40A2661F0232B26
:10169E00242B252B21F408950A2609F4A140A695A2
:0816AE008FEF811D811D0895DD
:1016B60057FD9058440F551F59F05F3F71F04795FD
:1016C600880F97FB991F61F09F3F79F087950895E2
:1016D600121613061406551FF2CF4695F1DF08C001
:1016E600161617061806991FF1CF8695710561051E
:0416F60008940895B7
:1016FA00CF93DF9300D0CDB7DEB79A8389830BC02F
:10170A0089819A819C012F5F3F4F3A832983FC018B
:10171A0080810E94D30B89819A81FC018081882370
:0E172A0079F700000F900F90DF91CF91089596
:10173800CF93DF9300D00F92CDB7DEB78A836B8348
:101748008A81813021F48B818158898303C08B8100
:101758008154898389810E94760700000F900F9039
:081768000F90DF91CF9108956D
:10177000CF93DF93CDB7DEB780E490E0FC01108219
:1017800089E290E023E3FC0120838AE290E028E1F3
:10179000FC01208380E490E026E8FC012083000027
:0617A000DF91CF910895D6
:1017A600CF93DF930F92CDB7DEB7898300008BE22C
:1017B60090E0FC018081882F90E080729927892B28
:1017C600B1F38CE290E02981FC01208300000F90A8
:0617D600DF91CF910895A0
:1017DC00CF93DF93CDB7DEB700008BE290E0FC0136
:1017EC0080818823D4F78CE290E0FC018081DF912A
:0417FC00CF910895EC
:10180000092E0394000C11F4882352F0BB0F40F40E
:10181000BF2B11F460FF04C06F5F7F4F8F4F9F4F4E
:02182000089529
:10182200DC01FB019D912191921303C09111FACF2A
:0C183200292F892F90E0821B9109089556
:10183E00EC010E94660C0E94650CCE010E94670CA2
:06184E00CE010E94630CB4
:0E1854005058BB27AA270E940A0A0C94000CC9
:0E18620000240A9416161706180609060895A3
:0E18700000240A9412161306140605060895A5
:0E187E00E894BB2766277727CB0197F90895DA
:0C188C0097F99F6780E870E060E0089525
:0A1898000E94370B08F481E0089568
:0A18A2000E94370B08F48FEF089541
:0818AC000E9431090C94000CAC
:0818B4000E94A0090C94000C35
:0618BC009FEF80EC08958F
:0418C2000C94000082
:0418C6000E94560026
:0218CA0008957F
:0218CC0008957D
:0218CE0008957B
:1018D00048454C4C4F0048454C4C4F0D0A0057456D
:1018E0004C434F4D4500535441545553000D0A008D
:1018F0005357313D005357323D005357333D00207D
:101900005357323D000D0A494E56414C494420433D
:101910004F4D4D414E440D0A00494E56414C4944ED
:0919200000434F4D4D414E4400BF
:101929005553415254205245414459004D6F6E69F7
:0A193900746F72696E672E2E2E0087
:00000001FF
