:100000000C942E000C94E8010C94E8010C94E80187
:100010000C94E8010C94E8010C94E8010C94E801BC
:100020000C94E8010C94E8010C94E8010C94E801AC
:100030000C94E8010C94E8010C94E8010C94E8019C
:100040000C94E8010C94E8010C94E8010C94E8018C
:100050000C94E8010060009B0003DE0011241FBE29
:10006000CFE5D8E0DEBFCDBFE4E5F0E040E017C06B
:10007000B591A59135912591059107FD0CC09591FC
:100080008591EF01F92FE82F05900D92A217B30784
:10009000D9F7FE0104C01D92A217B307E1F7EB35B3
:1000A000F40731F70E94FA000C94DD01F894FFCFB9
:1000B000CF93DF9300D000D000D0CDB7DEB79E83C2
:1000C0008D838D819E8160E670E00E94CF01892B37
:1000D00009F075C087E690E00E9468018AE690E02A
:1000E0000E94680189E390E0FC018081882F90E004
:1000F00081709927892B11F081E301C080E30E9470
:10010000A20187E690E00E9468018FE690E00E94DD
:10011000680189E390E0FC018081882F90E0827083
:100120009927892B11F081E301C080E30E94A2018D
:1001300087E690E00E94680184E790E00E946801F1
:1001400089E390E0FC018081882F90E084709927FA
:10015000892B11F081E301C080E30E94A20187E6B0
:1001600090E00E94680188E390E028E330E0F90124
:1001700020812460FC01208319821A821B821C8248
:100180000BC089819A81AB81BC810196A11DB11DF3
:1001900089839A83AB83BC8389819A81AB81BC813B
:1001A0008035934CA105B10564F388E390E028E322
:1001B00030E0F90120812B7FFC01208311C08D816B
:1001C0009E8169E770E00E94CF01892B29F48FE7B7
:1001D00090E00E94680104C087E890E00E946801F6
:1001E000000026960FB6F894DEBF0FBECDBFDF919C
:0401F000CF9108950E
:1001F400CF93DF93CDB7DEB767970FB6F894DEBF22
:100204000FBECDBF1A8219820E9487010E943C0151
:100214000E94BD018B838B818D3019F08B818A30D4
:10022400A9F49E012C5F3F4F89819A81820F931F0D
:10023400FC01108289819A811816190624F4CE01D2
:1002440004960E9458001A82198213C089819A81E7
:100254004397F0F689819A819C012F5F3F4F3A833F
:1002640029839E012C5F3F4F820F931F2B81FC013A
:040274002083CECF46
:10027800CF93DF93CDB7DEB78AE390E02AE330E08F
:10028800F9012081287FFC01208387E390E027E3A0
:1002980030E0F90120812660FC01208388E390E0AA
:1002A80028E330E0F90120812260FC01208388E303
:1002B80090E028E330E0F90120812B7FFC012083C6
:0802C8000000DF91CF910895C1
:1002D000CF93DF9300D0CDB7DEB79A8389830BC06D
:1002E00089819A819C012F5F3F4F3A832983FC01CA
:1002F00080810E94A20189819A81FC0180818823EA
:0E03000079F700000F900F90DF91CF910895D4
:10030E00CF93DF93CDB7DEB780E490E0FC0110828F
:10031E0089E290E023E3FC0120838AE290E028E169
:10032E00FC01208380E490E026E8FC01208300009D
:06033E00DF91CF9108954C
:10034400CF93DF930F92CDB7DEB7898300008BE2A2
:1003540090E0FC018081882F90E080729927892B9E
:10036400B1F38CE290E02981FC01208300000F901E
:06037400DF91CF91089516
:10037A00CF93DF93CDB7DEB700008BE290E0FC01AC
:10038A0080818823D4F78CE290E0FC018081DF91A0
:04039A00CF91089562
:10039E00DC01FB019D912191921303C09111FACFC3
:0C03AE00292F892F90E0821B91090895EF
:1003BA00EC010E94ED010E94EC01CE010E94EE01C7
:0603CA00CE010E94EA01D1
:0403D0000C94000089
:0403D4000E9456002D
:0203D800089586
:0203DA00089584
:0203DC00089582
:1003DE00535441545553000D0A005357313D0053A9
:1003EE0057323D005357333D0048454C4C4F004863
:1003FE00454C4C4F0D0A000D0A494E56414C49448E
:0B040E0020434F4D4D414E440D0A00AD
:00000001FF
