:100000000C942E000C9439010C9439010C94390194
:100010000C9439010C9439010C9439010C94390178
:100020000C9439010C9439010C9439010C94390168
:100030000C9439010C9439010C9439010C94390158
:100040000C9439010C9439010C9439010C94390148
:100050000C943901006000980002800011241FBE3A
:10006000CFE5D8E0DEBFCDBFE4E5F0E040E017C06B
:10007000B591A59135912591059107FD0CC09591FC
:100080008591EF01F92FE82F05900D92A217B30784
:10009000D9F7FE0104C01D92A217B307E1F7EB35B3
:1000A000F40731F70E9458000C942E01F894FFCF0A
:1000B000CF93DF9300D000D0CDB7DEB70E94F80019
:1000C0000E94AD0089E390E0FC018081882F90E0E0
:1000D00081709927892B29F080E690E00E94D90051
:1000E00022C089E390E0FC018081882F90E082703B
:1000F0009927892B29F08EE690E00E94D90013C041
:1001000089E390E0FC018081882F90E0847099273A
:10011000892B29F08CE790E00E94D90004C08AE87E
:1001200090E00E94D90019821A821B821C820BC0A7
:1001300089819A81AB81BC810196A11DB11D898302
:100140009A83AB83BC8389819A81AB81BC818035E2
:0A015000934CA105B10564F3B5CF8F
:10015A00CF93DF93CDB7DEB78AE390E02AE330E0AE
:10016A00F9012081287FFC01208387E390E027E3BF
:10017A0030E0F90120812660FC01208388E390E0C9
:10018A0028E330E0F90120812260FC01208388E322
:10019A0090E028E330E0F90120812B7FFC012083E5
:0801AA000000DF91CF910895E0
:1001B200CF93DF9300D0CDB7DEB79A8389830BC08C
:1001C20089819A819C012F5F3F4F3A832983FC01E9
:1001D20080810E94130189819A81FC018081882398
:0E01E20079F700000F900F90DF91CF910895F4
:1001F000CF93DF93CDB7DEB780E490E0FC011082AF
:1002000089E290E023E3FC0120838AE290E028E188
:10021000FC01208380E490E026E8FC0120830000BC
:06022000DF91CF9108956B
:10022600CF93DF930F92CDB7DEB7898300008BE2C1
:1002360090E0FC018081882F90E080729927892BBD
:10024600B1F38CE290E02981FC01208300000F903D
:06025600DF91CF91089535
:10025C00EC010E943E010E943D01CE010E943F0133
:06026C00CE010E943B01DF
:040272000C940000E8
:040276000E9456008C
:02027A000895E5
:02027C000895E3
:02027E000895E1
:1002800053573120505245535345440D0A0053579C
:100290003220505245535345440D0A0053573320E2
:1002A000505245535345440D0A0053595354454D3C
:0802B0002049444C450D0A00F1
:00000001FF
